{
  "_format": "hh3-artifact-1",
  "contractName": "AttestifyVault",
  "sourceName": "contracts/AttestifyVault.sol",
  "abi": [
    {
      "inputs": [
        {
          "internalType": "address",
          "name": "_cUSD",
          "type": "address"
        },
        {
          "internalType": "address",
          "name": "_acUSD",
          "type": "address"
        },
        {
          "internalType": "address",
          "name": "_aavePool",
          "type": "address"
        }
      ],
      "stateMutability": "nonpayable",
      "type": "constructor"
    },
    {
      "inputs": [],
      "name": "EnforcedPause",
      "type": "error"
    },
    {
      "inputs": [],
      "name": "ExceedsMaxDeposit",
      "type": "error"
    },
    {
      "inputs": [],
      "name": "ExceedsMaxTVL",
      "type": "error"
    },
    {
      "inputs": [],
      "name": "ExpectedPause",
      "type": "error"
    },
    {
      "inputs": [],
      "name": "InsufficientLiquidity",
      "type": "error"
    },
    {
      "inputs": [],
      "name": "InsufficientShares",
      "type": "error"
    },
    {
      "inputs": [],
      "name": "InvalidAmount",
      "type": "error"
    },
    {
      "inputs": [],
      "name": "NotVerified",
      "type": "error"
    },
    {
      "inputs": [
        {
          "internalType": "address",
          "name": "owner",
          "type": "address"
        }
      ],
      "name": "OwnableInvalidOwner",
      "type": "error"
    },
    {
      "inputs": [
        {
          "internalType": "address",
          "name": "account",
          "type": "address"
        }
      ],
      "name": "OwnableUnauthorizedAccount",
      "type": "error"
    },
    {
      "inputs": [],
      "name": "ReentrancyGuardReentrantCall",
      "type": "error"
    },
    {
      "inputs": [
        {
          "internalType": "address",
          "name": "token",
          "type": "address"
        }
      ],
      "name": "SafeERC20FailedOperation",
      "type": "error"
    },
    {
      "inputs": [],
      "name": "ZeroAddress",
      "type": "error"
    },
    {
      "anonymous": false,
      "inputs": [
        {
          "indexed": false,
          "internalType": "uint256",
          "name": "amount",
          "type": "uint256"
        },
        {
          "indexed": false,
          "internalType": "uint256",
          "name": "timestamp",
          "type": "uint256"
        }
      ],
      "name": "DeployedToAave",
      "type": "event"
    },
    {
      "anonymous": false,
      "inputs": [
        {
          "indexed": true,
          "internalType": "address",
          "name": "user",
          "type": "address"
        },
        {
          "indexed": false,
          "internalType": "uint256",
          "name": "assets",
          "type": "uint256"
        },
        {
          "indexed": false,
          "internalType": "uint256",
          "name": "shares",
          "type": "uint256"
        }
      ],
      "name": "Deposited",
      "type": "event"
    },
    {
      "anonymous": false,
      "inputs": [
        {
          "indexed": true,
          "internalType": "address",
          "name": "previousOwner",
          "type": "address"
        },
        {
          "indexed": true,
          "internalType": "address",
          "name": "newOwner",
          "type": "address"
        }
      ],
      "name": "OwnershipTransferred",
      "type": "event"
    },
    {
      "anonymous": false,
      "inputs": [
        {
          "indexed": false,
          "internalType": "address",
          "name": "account",
          "type": "address"
        }
      ],
      "name": "Paused",
      "type": "event"
    },
    {
      "anonymous": false,
      "inputs": [
        {
          "indexed": false,
          "internalType": "uint256",
          "name": "aaveBalance",
          "type": "uint256"
        },
        {
          "indexed": false,
          "internalType": "uint256",
          "name": "reserveBalance",
          "type": "uint256"
        },
        {
          "indexed": false,
          "internalType": "uint256",
          "name": "timestamp",
          "type": "uint256"
        }
      ],
      "name": "Rebalanced",
      "type": "event"
    },
    {
      "anonymous": false,
      "inputs": [
        {
          "indexed": true,
          "internalType": "address",
          "name": "user",
          "type": "address"
        },
        {
          "indexed": false,
          "internalType": "enum AttestifyVault.StrategyType",
          "name": "oldStrategy",
          "type": "uint8"
        },
        {
          "indexed": false,
          "internalType": "enum AttestifyVault.StrategyType",
          "name": "newStrategy",
          "type": "uint8"
        }
      ],
      "name": "StrategyChanged",
      "type": "event"
    },
    {
      "anonymous": false,
      "inputs": [
        {
          "indexed": false,
          "internalType": "address",
          "name": "account",
          "type": "address"
        }
      ],
      "name": "Unpaused",
      "type": "event"
    },
    {
      "anonymous": false,
      "inputs": [
        {
          "indexed": true,
          "internalType": "address",
          "name": "user",
          "type": "address"
        },
        {
          "indexed": false,
          "internalType": "uint256",
          "name": "userIdentifier",
          "type": "uint256"
        },
        {
          "indexed": false,
          "internalType": "uint256",
          "name": "timestamp",
          "type": "uint256"
        }
      ],
      "name": "UserVerified",
      "type": "event"
    },
    {
      "anonymous": false,
      "inputs": [
        {
          "indexed": true,
          "internalType": "address",
          "name": "user",
          "type": "address"
        },
        {
          "indexed": false,
          "internalType": "uint256",
          "name": "assets",
          "type": "uint256"
        },
        {
          "indexed": false,
          "internalType": "uint256",
          "name": "shares",
          "type": "uint256"
        }
      ],
      "name": "Withdrawn",
      "type": "event"
    },
    {
      "anonymous": false,
      "inputs": [
        {
          "indexed": false,
          "internalType": "uint256",
          "name": "amount",
          "type": "uint256"
        },
        {
          "indexed": false,
          "internalType": "uint256",
          "name": "timestamp",
          "type": "uint256"
        }
      ],
      "name": "WithdrawnFromAave",
      "type": "event"
    },
    {
      "inputs": [],
      "name": "MAX_DEPOSIT",
      "outputs": [
        {
          "internalType": "uint256",
          "name": "",
          "type": "uint256"
        }
      ],
      "stateMutability": "view",
      "type": "function"
    },
    {
      "inputs": [],
      "name": "MAX_TVL",
      "outputs": [
        {
          "internalType": "uint256",
          "name": "",
          "type": "uint256"
        }
      ],
      "stateMutability": "view",
      "type": "function"
    },
    {
      "inputs": [],
      "name": "MIN_DEPOSIT",
      "outputs": [
        {
          "internalType": "uint256",
          "name": "",
          "type": "uint256"
        }
      ],
      "stateMutability": "view",
      "type": "function"
    },
    {
      "inputs": [],
      "name": "RESERVE_RATIO",
      "outputs": [
        {
          "internalType": "uint256",
          "name": "",
          "type": "uint256"
        }
      ],
      "stateMutability": "view",
      "type": "function"
    },
    {
      "inputs": [],
      "name": "aavePool",
      "outputs": [
        {
          "internalType": "contract IPool",
          "name": "",
          "type": "address"
        }
      ],
      "stateMutability": "view",
      "type": "function"
    },
    {
      "inputs": [],
      "name": "acUSD",
      "outputs": [
        {
          "internalType": "contract IAToken",
          "name": "",
          "type": "address"
        }
      ],
      "stateMutability": "view",
      "type": "function"
    },
    {
      "inputs": [],
      "name": "aiAgent",
      "outputs": [
        {
          "internalType": "address",
          "name": "",
          "type": "address"
        }
      ],
      "stateMutability": "view",
      "type": "function"
    },
    {
      "inputs": [
        {
          "internalType": "address",
          "name": "user",
          "type": "address"
        }
      ],
      "name": "balanceOf",
      "outputs": [
        {
          "internalType": "uint256",
          "name": "",
          "type": "uint256"
        }
      ],
      "stateMutability": "view",
      "type": "function"
    },
    {
      "inputs": [],
      "name": "cUSD",
      "outputs": [
        {
          "internalType": "contract IERC20",
          "name": "",
          "type": "address"
        }
      ],
      "stateMutability": "view",
      "type": "function"
    },
    {
      "inputs": [
        {
          "internalType": "enum AttestifyVault.StrategyType",
          "name": "newStrategy",
          "type": "uint8"
        }
      ],
      "name": "changeStrategy",
      "outputs": [],
      "stateMutability": "nonpayable",
      "type": "function"
    },
    {
      "inputs": [
        {
          "internalType": "uint256",
          "name": "assets",
          "type": "uint256"
        }
      ],
      "name": "deposit",
      "outputs": [
        {
          "internalType": "uint256",
          "name": "sharesIssued",
          "type": "uint256"
        }
      ],
      "stateMutability": "nonpayable",
      "type": "function"
    },
    {
      "inputs": [
        {
          "internalType": "address",
          "name": "token",
          "type": "address"
        },
        {
          "internalType": "uint256",
          "name": "amount",
          "type": "uint256"
        }
      ],
      "name": "emergencyWithdraw",
      "outputs": [],
      "stateMutability": "nonpayable",
      "type": "function"
    },
    {
      "inputs": [],
      "name": "getCurrentAPY",
      "outputs": [
        {
          "internalType": "uint256",
          "name": "",
          "type": "uint256"
        }
      ],
      "stateMutability": "view",
      "type": "function"
    },
    {
      "inputs": [
        {
          "internalType": "address",
          "name": "user",
          "type": "address"
        }
      ],
      "name": "getEarnings",
      "outputs": [
        {
          "internalType": "uint256",
          "name": "",
          "type": "uint256"
        }
      ],
      "stateMutability": "view",
      "type": "function"
    },
    {
      "inputs": [],
      "name": "getVaultStats",
      "outputs": [
        {
          "internalType": "uint256",
          "name": "_totalAssets",
          "type": "uint256"
        },
        {
          "internalType": "uint256",
          "name": "_totalShares",
          "type": "uint256"
        },
        {
          "internalType": "uint256",
          "name": "reserveBalance",
          "type": "uint256"
        },
        {
          "internalType": "uint256",
          "name": "aaveBalance",
          "type": "uint256"
        },
        {
          "internalType": "uint256",
          "name": "_totalDeposited",
          "type": "uint256"
        },
        {
          "internalType": "uint256",
          "name": "_totalWithdrawn",
          "type": "uint256"
        }
      ],
      "stateMutability": "view",
      "type": "function"
    },
    {
      "inputs": [
        {
          "internalType": "address",
          "name": "user",
          "type": "address"
        }
      ],
      "name": "isVerified",
      "outputs": [
        {
          "internalType": "bool",
          "name": "",
          "type": "bool"
        }
      ],
      "stateMutability": "view",
      "type": "function"
    },
    {
      "inputs": [],
      "name": "lastRebalance",
      "outputs": [
        {
          "internalType": "uint256",
          "name": "",
          "type": "uint256"
        }
      ],
      "stateMutability": "view",
      "type": "function"
    },
    {
      "inputs": [],
      "name": "owner",
      "outputs": [
        {
          "internalType": "address",
          "name": "",
          "type": "address"
        }
      ],
      "stateMutability": "view",
      "type": "function"
    },
    {
      "inputs": [],
      "name": "pause",
      "outputs": [],
      "stateMutability": "nonpayable",
      "type": "function"
    },
    {
      "inputs": [],
      "name": "paused",
      "outputs": [
        {
          "internalType": "bool",
          "name": "",
          "type": "bool"
        }
      ],
      "stateMutability": "view",
      "type": "function"
    },
    {
      "inputs": [],
      "name": "rebalance",
      "outputs": [],
      "stateMutability": "nonpayable",
      "type": "function"
    },
    {
      "inputs": [],
      "name": "renounceOwnership",
      "outputs": [],
      "stateMutability": "nonpayable",
      "type": "function"
    },
    {
      "inputs": [
        {
          "internalType": "address",
          "name": "_aiAgent",
          "type": "address"
        }
      ],
      "name": "setAIAgent",
      "outputs": [],
      "stateMutability": "nonpayable",
      "type": "function"
    },
    {
      "inputs": [
        {
          "internalType": "address",
          "name": "_treasury",
          "type": "address"
        }
      ],
      "name": "setTreasury",
      "outputs": [],
      "stateMutability": "nonpayable",
      "type": "function"
    },
    {
      "inputs": [
        {
          "internalType": "address",
          "name": "",
          "type": "address"
        }
      ],
      "name": "shares",
      "outputs": [
        {
          "internalType": "uint256",
          "name": "",
          "type": "uint256"
        }
      ],
      "stateMutability": "view",
      "type": "function"
    },
    {
      "inputs": [
        {
          "internalType": "enum AttestifyVault.StrategyType",
          "name": "",
          "type": "uint8"
        }
      ],
      "name": "strategies",
      "outputs": [
        {
          "internalType": "string",
          "name": "name",
          "type": "string"
        },
        {
          "internalType": "uint8",
          "name": "aaveAllocation",
          "type": "uint8"
        },
        {
          "internalType": "uint8",
          "name": "reserveAllocation",
          "type": "uint8"
        },
        {
          "internalType": "uint16",
          "name": "targetAPY",
          "type": "uint16"
        },
        {
          "internalType": "uint8",
          "name": "riskLevel",
          "type": "uint8"
        },
        {
          "internalType": "bool",
          "name": "isActive",
          "type": "bool"
        }
      ],
      "stateMutability": "view",
      "type": "function"
    },
    {
      "inputs": [],
      "name": "totalAssets",
      "outputs": [
        {
          "internalType": "uint256",
          "name": "",
          "type": "uint256"
        }
      ],
      "stateMutability": "view",
      "type": "function"
    },
    {
      "inputs": [],
      "name": "totalDeposited",
      "outputs": [
        {
          "internalType": "uint256",
          "name": "",
          "type": "uint256"
        }
      ],
      "stateMutability": "view",
      "type": "function"
    },
    {
      "inputs": [],
      "name": "totalShares",
      "outputs": [
        {
          "internalType": "uint256",
          "name": "",
          "type": "uint256"
        }
      ],
      "stateMutability": "view",
      "type": "function"
    },
    {
      "inputs": [],
      "name": "totalWithdrawn",
      "outputs": [
        {
          "internalType": "uint256",
          "name": "",
          "type": "uint256"
        }
      ],
      "stateMutability": "view",
      "type": "function"
    },
    {
      "inputs": [
        {
          "internalType": "address",
          "name": "newOwner",
          "type": "address"
        }
      ],
      "name": "transferOwnership",
      "outputs": [],
      "stateMutability": "nonpayable",
      "type": "function"
    },
    {
      "inputs": [],
      "name": "treasury",
      "outputs": [
        {
          "internalType": "address",
          "name": "",
          "type": "address"
        }
      ],
      "stateMutability": "view",
      "type": "function"
    },
    {
      "inputs": [],
      "name": "unpause",
      "outputs": [],
      "stateMutability": "nonpayable",
      "type": "function"
    },
    {
      "inputs": [
        {
          "internalType": "address",
          "name": "",
          "type": "address"
        }
      ],
      "name": "userStrategy",
      "outputs": [
        {
          "internalType": "enum AttestifyVault.StrategyType",
          "name": "",
          "type": "uint8"
        }
      ],
      "stateMutability": "view",
      "type": "function"
    },
    {
      "inputs": [
        {
          "internalType": "address",
          "name": "",
          "type": "address"
        }
      ],
      "name": "users",
      "outputs": [
        {
          "internalType": "bool",
          "name": "isVerified",
          "type": "bool"
        },
        {
          "internalType": "uint256",
          "name": "verifiedAt",
          "type": "uint256"
        },
        {
          "internalType": "uint256",
          "name": "totalDeposited",
          "type": "uint256"
        },
        {
          "internalType": "uint256",
          "name": "totalWithdrawn",
          "type": "uint256"
        },
        {
          "internalType": "uint256",
          "name": "lastActionTime",
          "type": "uint256"
        },
        {
          "internalType": "uint256",
          "name": "userIdentifier",
          "type": "uint256"
        }
      ],
      "stateMutability": "view",
      "type": "function"
    },
    {
      "inputs": [
        {
          "internalType": "bytes",
          "name": "",
          "type": "bytes"
        },
        {
          "internalType": "bytes",
          "name": "",
          "type": "bytes"
        }
      ],
      "name": "verifySelfProof",
      "outputs": [],
      "stateMutability": "nonpayable",
      "type": "function"
    },
    {
      "inputs": [
        {
          "internalType": "uint256",
          "name": "assets",
          "type": "uint256"
        }
      ],
      "name": "withdraw",
      "outputs": [
        {
          "internalType": "uint256",
          "name": "sharesBurned",
          "type": "uint256"
        }
      ],
      "stateMutability": "nonpayable",
      "type": "function"
    }
  ],
  "bytecode": "0x60e060405234801561000f575f5ffd5b5060405161244f38038061244f83398101604081905261002e91610477565b338061005357604051631e4fbdf760e01b81525f600482015260240160405180910390fd5b61005c816100e9565b50600180556001600160a01b038316158061007e57506001600160a01b038216155b8061009057506001600160a01b038116155b156100ae5760405163d92e233d60e01b815260040160405180910390fd5b6001600160a01b0380841660805282811660a052811660c052600980546001600160a01b031916331790556100e1610138565b505050610609565b5f80546001600160a01b038381166001600160a01b0319831681178455604051919092169283917f8be0079c531659141344cd1fd0a4f28419497f9722a3daafe3b4186f6b6457e09190a35050565b6040805161010081018252600c60c082019081526b436f6e73657276617469766560a01b60e0830152815260646020808301919091525f92820183905261015e606083015260016080830181905260a0830152918052600790915280517f6d5257204ebe7d88fd91ae87941cb2dd9d8062b64ae5a2bd2d28ec40b9fbf6df9081906101c3908261054f565b50602082810151600192830180546040808701516060808901516080808b015160a09b8c015160ff998a1661ffff1990981697909717610100958a1686021764ffffff000019166201000061ffff9094169390930260ff60201b19169290921764010000000098909216979097021760ff60281b191665010000000000941515949094029390931790935580519283018152600860c084019081526710985b185b98d95960c21b60e08501528352605a83860152600a9083015261015e908201526003918101919091529283018290525f919091526007905280517fb39221ace053465ec3453ce2b36430bd138b997ecea25c1043da0c366812b8289081906102cc908261054f565b50602082810151600192830180546040808701516060808901516080808b015160a09b8c015160ff998a1661ffff1990981697909717610100958a1686021764ffffff000019166201000061ffff9094169390930260ff60201b19169290921764010000000098909216979097021760ff60281b191665010000000000941515949094029390931790935580519283018152600660c084019081526508ee4deeee8d60d31b60e0850152835260508386015260149083015261015e908201526005918101919091529283019190915260025f526007905280517fb7c774451310d1be4108bc180d1b52823cb0ee0274a6c0081bcaf94f115fb96d9081906103d3908261054f565b5060208201516001909101805460408401516060850151608086015160a0909601511515650100000000000260ff60281b1960ff9788166401000000000260ff60201b1961ffff90941662010000029390931664ffffff0000199489166101000261ffff1990961698909716979097179390931791909116939093179290921792909216179055565b80516001600160a01b0381168114610472575f5ffd5b919050565b5f5f5f60608486031215610489575f5ffd5b6104928461045c565b92506104a06020850161045c565b91506104ae6040850161045c565b90509250925092565b634e487b7160e01b5f52604160045260245ffd5b600181811c908216806104df57607f821691505b6020821081036104fd57634e487b7160e01b5f52602260045260245ffd5b50919050565b601f82111561054a57805f5260205f20601f840160051c810160208510156105285750805b601f840160051c820191505b81811015610547575f8155600101610534565b50505b505050565b81516001600160401b03811115610568576105686104b7565b61057c8161057684546104cb565b84610503565b6020601f8211600181146105ae575f83156105975750848201515b5f19600385901b1c1916600184901b178455610547565b5f84815260208120601f198516915b828110156105dd57878501518255602094850194600190920191016105bd565b50848210156105fa57868401515f19600387901b60f8161c191681555b50505050600190811b01905550565b60805160a05160c051611d9e6106b15f395f81816103ed0152818161065001528181610f48015281816114420152818161166801528181611745015261182f01525f81816102730152610d8201525f81816102b2015281816105c50152818161097001528181610a1001528181610c8e01528181610e0801528181610fd8015281816111dd0152818161140b015281816116920152818161171e01526117f40152611d9e5ff3fe608060405234801561000f575f5ffd5b506004361061021e575f3560e01c80638456cb591161012a578063b8127fac116100b4578063e1e158a511610079578063e1e158a51461055e578063e37dbfd91461056d578063f0f4426014610575578063f2fde38b14610588578063ff50abdc1461059b575f5ffd5b8063b8127fac146104df578063b9209e33146104f0578063ce7c2ac21461051b578063d161802b1461053a578063dd5967c31461054d575f5ffd5b8063a03e4bc3116100fa578063a03e4bc3146103e8578063a59aa5a61461040f578063a6d5b73214610444578063a87430ba14610457578063b6b55f25146104cc575f5ffd5b80638456cb59146103b55780638da5cb5b146103bd57806395ccea67146103cd578063962ca496146103e0575f5ffd5b8063457cf68c116101ab578063667316e91161017b578063667316e91461035a5780636ebe941b1461037f57806370a0823114610392578063715018a6146103a55780637d7c2a1c146103ad575f5ffd5b8063457cf68c146102f85780634b319713146103275780635c975abb1461033057806361d027b314610347575f5ffd5b806314eb8e9c116101f157806314eb8e9c1461026e5780631fccf672146102ad5780632e1a7d4d146102d45780633a98ef39146102e75780633f4ba83a146102f0575f5ffd5b806301e1d114146102225780630ffe355c1461023d578063106b9ca114610252578063131b9c041461025b575b5f5ffd5b61022a6105a4565b6040519081526020015b60405180910390f35b61025061024b3660046119f4565b6106d3565b005b61022a600c5481565b61022a610269366004611a28565b610806565b6102957f000000000000000000000000000000000000000000000000000000000000000081565b6040516001600160a01b039091168152602001610234565b6102957f000000000000000000000000000000000000000000000000000000000000000081565b61022a6102e2366004611a41565b610888565b61022a60035481565b610250610a81565b61031a610306366004611a28565b60066020525f908152604090205460ff1681565b6040516102349190611a8c565b61022a600b5481565b60025460ff165b6040519015158152602001610234565b600954610295906001600160a01b031681565b61036d6103683660046119f4565b610a93565b60405161023496959493929190611a9a565b61025061038d366004611a28565b610b63565b61022a6103a0366004611a28565b610bb4565b610250610bdb565b610250610bec565b610250610e9d565b5f546001600160a01b0316610295565b6102506103db366004611afd565b610ead565b61015e61022a565b6102957f000000000000000000000000000000000000000000000000000000000000000081565b610417610f1d565b604080519687526020870195909552938501929092526060840152608083015260a082015260c001610234565b600854610295906001600160a01b031681565b61049d610465366004611a28565b600560208190525f918252604090912080546001820154600283015460038401546004850154949095015460ff909316949193909286565b6040805196151587526020870195909552938501929092526060840152608083015260a082015260c001610234565b61022a6104da366004611a41565b611063565b61022a69152d02c7e14af680000081565b6103376104fe366004611a28565b6001600160a01b03165f9081526005602052604090205460ff1690565b61022a610529366004611a28565b60046020525f908152604090205481565b610250610548366004611bc4565b611252565b61022a69021e19e0c9bab240000081565b61022a670de0b6b3a764000081565b61022a600a81565b610250610583366004611a28565b6112c6565b610250610596366004611a28565b611317565b61022a600a5481565b6040516370a0823160e01b81523060048201525f9081906001600160a01b037f000000000000000000000000000000000000000000000000000000000000000016906370a0823190602401602060405180830381865afa15801561060a573d5f5f3e3d5ffd5b505050506040513d601f19601f8201168201806040525081019061062e9190611c29565b604051632fe4a15f60e21b81523060048201529091505f906001600160a01b037f0000000000000000000000000000000000000000000000000000000000000000169063bf92857c9060240160c060405180830381865afa158015610695573d5f5f3e3d5ffd5b505050506040513d601f19601f820116820180604052508101906106b99190611c40565b5050505050905080826106cc9190611c9a565b9250505090565b335f9081526005602052604090205460ff166107025760405163a95362b560e01b815260040160405180910390fd5b60075f82600281111561071757610717611a58565b600281111561072857610728611a58565b815260208101919091526040015f206001015465010000000000900460ff1661078b5760405162461bcd60e51b815260206004820152601060248201526f496e76616c696420737472617465677960801b60448201526064015b60405180910390fd5b335f908152600660205260409020805460ff811691839160ff191660018360028111156107ba576107ba611a58565b0217905550336001600160a01b03167f7b849fd02893af4f5628708e216ebbf2d0f6929320cf7370d5cc08852202cf5a82846040516107fa929190611cad565b60405180910390a25050565b6001600160a01b0381165f90815260046020526040812054819061082990611354565b6001600160a01b0384165f9081526005602052604090206002810154600390910154919250908161085a8285611c9a565b111561087e578161086b8285611c9a565b6108759190611cc8565b95945050505050565b505f949350505050565b5f610891611384565b61089a826113ae565b335f908152600460205260409020549091508111156108cc57604051633999656760e01b815260040160405180910390fd5b335f90815260046020526040812080548392906108ea908490611cc8565b925050819055508060035f8282546109029190611cc8565b9091555050335f9081526005602052604081206003018054849290610928908490611c9a565b9091555050335f90815260056020526040812042600490910155600b8054849290610954908490611c9a565b90915550506040516370a0823160e01b81523060048201525f907f00000000000000000000000000000000000000000000000000000000000000006001600160a01b0316906370a0823190602401602060405180830381865afa1580156109bd573d5f5f3e3d5ffd5b505050506040513d601f19601f820116820180604052508101906109e19190611c29565b905082811015610a03575f6109f68285611cc8565b9050610a01816113f4565b505b610a376001600160a01b037f00000000000000000000000000000000000000000000000000000000000000001633856114ed565b604080518481526020810184905233917f92ccf450a286a957af52509bc1c9939d1a6a481783e142e41e2499f0bb66ebc6910160405180910390a250610a7c60018055565b919050565b610a89611551565b610a9161157d565b565b60076020525f9081526040902080548190610aad90611cdb565b80601f0160208091040260200160405190810160405280929190818152602001828054610ad990611cdb565b8015610b245780601f10610afb57610100808354040283529160200191610b24565b820191905f5260205f20905b815481529060010190602001808311610b0757829003601f168201915b5050506001909301549192505060ff80821691610100810482169161ffff62010000830416916401000000008104821691650100000000009091041686565b610b6b611551565b6001600160a01b038116610b925760405163d92e233d60e01b815260040160405180910390fd5b600880546001600160a01b0319166001600160a01b0392909216919091179055565b6001600160a01b0381165f90815260046020526040812054610bd590611354565b92915050565b610be3611551565b610a915f6115cf565b5f546001600160a01b0316331480610c0e57506008546001600160a01b031633145b610c495760405162461bcd60e51b815260206004820152600c60248201526b155b985d5d1a1bdc9a5e995960a21b6044820152606401610782565b5f610c526105a4565b90505f6064610c62600a84611d13565b610c6c9190611d2a565b6040516370a0823160e01b81523060048201529091505f906001600160a01b037f000000000000000000000000000000000000000000000000000000000000000016906370a0823190602401602060405180830381865afa158015610cd3573d5f5f3e3d5ffd5b505050506040513d601f19601f82011682018060405250810190610cf79190611c29565b905081811015610d1d575f610d0c8284611cc8565b9050610d17816113f4565b50610d47565b610d28826002611d13565b811115610d47575f610d3a8383611cc8565b9050610d458161161e565b505b42600c556040516370a0823160e01b81523060048201527f83387a3342ff1ebc5e437dc9ae0f98274afda12a11cf547eebec05a3e0b8f8a7907f00000000000000000000000000000000000000000000000000000000000000006001600160a01b0316906370a0823190602401602060405180830381865afa158015610dcf573d5f5f3e3d5ffd5b505050506040513d601f19601f82011682018060405250810190610df39190611c29565b6040516370a0823160e01b81523060048201527f00000000000000000000000000000000000000000000000000000000000000006001600160a01b0316906370a0823190602401602060405180830381865afa158015610e55573d5f5f3e3d5ffd5b505050506040513d601f19601f82011682018060405250810190610e799190611c29565b604080519283526020830191909152429082015260600160405180910390a1505050565b610ea5611551565b610a916118c5565b610eb5611551565b60025460ff16610ef45760405162461bcd60e51b815260206004820152600a602482015269139bdd081c185d5cd95960b21b6044820152606401610782565b610f19610f085f546001600160a01b031690565b6001600160a01b03841690836114ed565b5050565b604051632fe4a15f60e21b81523060048201525f908190819081908190819081906001600160a01b037f0000000000000000000000000000000000000000000000000000000000000000169063bf92857c9060240160c060405180830381865afa158015610f8d573d5f5f3e3d5ffd5b505050506040513d601f19601f82011682018060405250810190610fb19190611c40565b50505050509050610fc06105a4565b6003546040516370a0823160e01b81523060048201527f00000000000000000000000000000000000000000000000000000000000000006001600160a01b0316906370a0823190602401602060405180830381865afa158015611025573d5f5f3e3d5ffd5b505050506040513d601f19601f820116820180604052508101906110499190611c29565b600a54600b54939b929a5090985092965091945092509050565b5f61106c611384565b611074611902565b335f9081526005602052604090205460ff166110a35760405163a95362b560e01b815260040160405180910390fd5b670de0b6b3a76400008210156110cc5760405163162908e360e11b815260040160405180910390fd5b69021e19e0c9bab24000008211156110f75760405163e4bac01b60e01b815260040160405180910390fd5b69152d02c7e14af68000008261110b6105a4565b6111159190611c9a565b11156111345760405163a84b0dcd60e01b815260040160405180910390fd5b61113d826113ae565b335f90815260046020526040812080549293508392909190611160908490611c9a565b925050819055508060035f8282546111789190611c9a565b9091555050335f908152600560205260408120600201805484929061119e908490611c9a565b9091555050335f90815260056020526040812042600490910155600a80548492906111ca908490611c9a565b9091555061120590506001600160a01b037f000000000000000000000000000000000000000000000000000000000000000016333085611926565b61120e8261161e565b604080518381526020810183905233917f73a19dd210f1a7f902193214c0ee91dd35ee5b4d920cba8d519eca65a7b488ca910160405180910390a2610a7c60018055565b335f8181526005602081815260408084208054600160ff19918216811783554290830181905591850187815560068552958390208054909116905592825292548351908152908101919091527f7e1c6d9e9f71f4c4f9c072bdd7a6eaa673772c6b1f94d93eb000abd65cdcba1291016107fa565b6112ce611551565b6001600160a01b0381166112f55760405163d92e233d60e01b815260040160405180910390fd5b600980546001600160a01b0319166001600160a01b0392909216919091179055565b61131f611551565b6001600160a01b03811661134857604051631e4fbdf760e01b81525f6004820152602401610782565b611351816115cf565b50565b5f6003545f0361136557505f919050565b6003546113706105a4565b61137a9084611d13565b610bd59190611d2a565b6002600154036113a757604051633ee5aeb560e01b815260040160405180910390fd5b6002600155565b5f5f6113b86105a4565b90506003545f14806113c8575080155b156113d4575090919050565b80600354846113e39190611d13565b6113ed9190611d2a565b9392505050565b604051631a4ca37b60e21b81526001600160a01b037f000000000000000000000000000000000000000000000000000000000000000081166004830152602482018390523060448301525f917f0000000000000000000000000000000000000000000000000000000000000000909116906369328dec906064016020604051808303815f875af115801561148a573d5f5f3e3d5ffd5b505050506040513d601f19601f820116820180604052508101906114ae9190611c29565b604080518281524260208201529192507f57501c8e2164a8e257532432c793d9ee7bb35236acd0592a0b029a7f80a2eb5e910160405180910390a15050565b6040516001600160a01b0383811660248301526044820183905261154c91859182169063a9059cbb906064015b604051602081830303815290604052915060e01b6020820180516001600160e01b038381831617835250505050611965565b505050565b5f546001600160a01b03163314610a915760405163118cdaa760e01b8152336004820152602401610782565b6115856119d1565b6002805460ff191690557f5db9ee0a495bf2e6ff9c91a7834c1ba4fdd244a5e8aa4e537bd38aeae4b073aa335b6040516001600160a01b03909116815260200160405180910390a1565b5f80546001600160a01b038381166001600160a01b0319831681178455604051919092169283917f8be0079c531659141344cd1fd0a4f28419497f9722a3daafe3b4186f6b6457e09190a35050565b5f606461162c600a84611d13565b6116369190611d2a565b90505f6116438284611cc8565b9050801561154c57604051636eb1769f60e11b81523060048201526001600160a01b037f0000000000000000000000000000000000000000000000000000000000000000811660248301525f917f00000000000000000000000000000000000000000000000000000000000000009091169063dd62ed3e90604401602060405180830381865afa1580156116d9573d5f5f3e3d5ffd5b505050506040513d601f19601f820116820180604052508101906116fd9190611c29565b9050818110156117dd575f6117128284611cc8565b90506001600160a01b037f00000000000000000000000000000000000000000000000000000000000000001663095ea7b37f000000000000000000000000000000000000000000000000000000000000000061176e8486611c9a565b6040516001600160e01b031960e085901b1681526001600160a01b03909216600483015260248201526044016020604051808303815f875af11580156117b6573d5f5f3e3d5ffd5b505050506040513d601f19601f820116820180604052508101906117da9190611d49565b50505b60405163617ba03760e01b81526001600160a01b037f000000000000000000000000000000000000000000000000000000000000000081166004830152602482018490523060448301525f60648301527f0000000000000000000000000000000000000000000000000000000000000000169063617ba037906084015f604051808303815f87803b158015611870575f5ffd5b505af1158015611882573d5f5f3e3d5ffd5b5050604080518581524260208201527f417024b58043cdc8bf5066517b4535c6c5a66e03e8f392d7fb48a3a20f668ad1935001905060405180910390a150505050565b6118cd611902565b6002805460ff191660011790557f62e78cea01bee320cd4e420270b5ea74000d11b0c9f74754ebdbfc544b05a2586115b23390565b60025460ff1615610a915760405163d93c066560e01b815260040160405180910390fd5b6040516001600160a01b03848116602483015283811660448301526064820183905261195f9186918216906323b872dd9060840161151a565b50505050565b5f5f60205f8451602086015f885af180611984576040513d5f823e3d81fd5b50505f513d9150811561199b5780600114156119a8565b6001600160a01b0384163b155b1561195f57604051635274afe760e01b81526001600160a01b0385166004820152602401610782565b60025460ff16610a9157604051638dfc202b60e01b815260040160405180910390fd5b5f60208284031215611a04575f5ffd5b8135600381106113ed575f5ffd5b80356001600160a01b0381168114610a7c575f5ffd5b5f60208284031215611a38575f5ffd5b6113ed82611a12565b5f60208284031215611a51575f5ffd5b5035919050565b634e487b7160e01b5f52602160045260245ffd5b60038110611a8857634e487b7160e01b5f52602160045260245ffd5b9052565b60208101610bd58284611a6c565b60c081525f87518060c08401528060208a0160e085015e5f60e082850181019190915260ff9889166020850152968816604084015261ffff9590951660608301525091909416608082015292151560a0840152601f01601f191690910101919050565b5f5f60408385031215611b0e575f5ffd5b611b1783611a12565b946020939093013593505050565b634e487b7160e01b5f52604160045260245ffd5b5f82601f830112611b48575f5ffd5b813567ffffffffffffffff811115611b6257611b62611b25565b604051601f8201601f19908116603f0116810167ffffffffffffffff81118282101715611b9157611b91611b25565b604052818152838201602001851015611ba8575f5ffd5b816020850160208301375f918101602001919091529392505050565b5f5f60408385031215611bd5575f5ffd5b823567ffffffffffffffff811115611beb575f5ffd5b611bf785828601611b39565b925050602083013567ffffffffffffffff811115611c13575f5ffd5b611c1f85828601611b39565b9150509250929050565b5f60208284031215611c39575f5ffd5b5051919050565b5f5f5f5f5f5f60c08789031215611c55575f5ffd5b50508451602086015160408701516060880151608089015160a090990151939a929950909790965094509092509050565b634e487b7160e01b5f52601160045260245ffd5b80820180821115610bd557610bd5611c86565b60408101611cbb8285611a6c565b6113ed6020830184611a6c565b81810381811115610bd557610bd5611c86565b600181811c90821680611cef57607f821691505b602082108103611d0d57634e487b7160e01b5f52602260045260245ffd5b50919050565b8082028115828204841417610bd557610bd5611c86565b5f82611d4457634e487b7160e01b5f52601260045260245ffd5b500490565b5f60208284031215611d59575f5ffd5b815180151581146113ed575f5ffdfea2646970667358221220a3f7559f2cfdf609e7aeafb385b0637b4d6254ae7b86f58e9655e9a0e07073c264736f6c634300081c0033",
  "linkReferences": {},
  "deployedLinkReferences": {},
  "immutableReferences": {
    "1019": [
      {
        "length": 32,
        "start": 690
      },
      {
        "length": 32,
        "start": 1477
      },
      {
        "length": 32,
        "start": 2416
      },
      {
        "length": 32,
        "start": 2576
      },
      {
        "length": 32,
        "start": 3214
      },
      {
        "length": 32,
        "start": 3592
      },
      {
        "length": 32,
        "start": 4056
      },
      {
        "length": 32,
        "start": 4573
      },
      {
        "length": 32,
        "start": 5131
      },
      {
        "length": 32,
        "start": 5778
      },
      {
        "length": 32,
        "start": 5918
      },
      {
        "length": 32,
        "start": 6132
      }
    ],
    "1022": [
      {
        "length": 32,
        "start": 627
      },
      {
        "length": 32,
        "start": 3458
      }
    ],
    "1025": [
      {
        "length": 32,
        "start": 1005
      },
      {
        "length": 32,
        "start": 1616
      },
      {
        "length": 32,
        "start": 3912
      },
      {
        "length": 32,
        "start": 5186
      },
      {
        "length": 32,
        "start": 5736
      },
      {
        "length": 32,
        "start": 5957
      },
      {
        "length": 32,
        "start": 6191
      }
    ]
  },
  "inputSourceName": "project/contracts/AttestifyVault.sol",
  "buildInfoId": "solc-0_8_28-1a208519c08cfe5fd76950394c151a897295e87b"
}