{
  "_format": "hh3-artifact-1",
  "contractName": "MockAToken",
  "sourceName": "contracts/MockAToken.sol",
  "abi": [
    {
      "inputs": [
        {
          "internalType": "address",
          "name": "underlyingAsset",
          "type": "address"
        },
        {
          "internalType": "address",
          "name": "pool",
          "type": "address"
        },
        {
          "internalType": "string",
          "name": "name",
          "type": "string"
        },
        {
          "internalType": "string",
          "name": "symbol",
          "type": "string"
        }
      ],
      "stateMutability": "nonpayable",
      "type": "constructor"
    },
    {
      "inputs": [
        {
          "internalType": "address",
          "name": "spender",
          "type": "address"
        },
        {
          "internalType": "uint256",
          "name": "allowance",
          "type": "uint256"
        },
        {
          "internalType": "uint256",
          "name": "needed",
          "type": "uint256"
        }
      ],
      "name": "ERC20InsufficientAllowance",
      "type": "error"
    },
    {
      "inputs": [
        {
          "internalType": "address",
          "name": "sender",
          "type": "address"
        },
        {
          "internalType": "uint256",
          "name": "balance",
          "type": "uint256"
        },
        {
          "internalType": "uint256",
          "name": "needed",
          "type": "uint256"
        }
      ],
      "name": "ERC20InsufficientBalance",
      "type": "error"
    },
    {
      "inputs": [
        {
          "internalType": "address",
          "name": "approver",
          "type": "address"
        }
      ],
      "name": "ERC20InvalidApprover",
      "type": "error"
    },
    {
      "inputs": [
        {
          "internalType": "address",
          "name": "receiver",
          "type": "address"
        }
      ],
      "name": "ERC20InvalidReceiver",
      "type": "error"
    },
    {
      "inputs": [
        {
          "internalType": "address",
          "name": "sender",
          "type": "address"
        }
      ],
      "name": "ERC20InvalidSender",
      "type": "error"
    },
    {
      "inputs": [
        {
          "internalType": "address",
          "name": "spender",
          "type": "address"
        }
      ],
      "name": "ERC20InvalidSpender",
      "type": "error"
    },
    {
      "inputs": [
        {
          "internalType": "address",
          "name": "owner",
          "type": "address"
        }
      ],
      "name": "OwnableInvalidOwner",
      "type": "error"
    },
    {
      "inputs": [
        {
          "internalType": "address",
          "name": "account",
          "type": "address"
        }
      ],
      "name": "OwnableUnauthorizedAccount",
      "type": "error"
    },
    {
      "anonymous": false,
      "inputs": [
        {
          "indexed": true,
          "internalType": "address",
          "name": "owner",
          "type": "address"
        },
        {
          "indexed": true,
          "internalType": "address",
          "name": "spender",
          "type": "address"
        },
        {
          "indexed": false,
          "internalType": "uint256",
          "name": "value",
          "type": "uint256"
        }
      ],
      "name": "Approval",
      "type": "event"
    },
    {
      "anonymous": false,
      "inputs": [
        {
          "indexed": true,
          "internalType": "address",
          "name": "user",
          "type": "address"
        },
        {
          "indexed": false,
          "internalType": "uint256",
          "name": "amount",
          "type": "uint256"
        },
        {
          "indexed": false,
          "internalType": "uint256",
          "name": "index",
          "type": "uint256"
        }
      ],
      "name": "Burn",
      "type": "event"
    },
    {
      "anonymous": false,
      "inputs": [
        {
          "indexed": true,
          "internalType": "address",
          "name": "user",
          "type": "address"
        },
        {
          "indexed": false,
          "internalType": "uint256",
          "name": "amount",
          "type": "uint256"
        },
        {
          "indexed": false,
          "internalType": "uint256",
          "name": "index",
          "type": "uint256"
        }
      ],
      "name": "Mint",
      "type": "event"
    },
    {
      "anonymous": false,
      "inputs": [
        {
          "indexed": true,
          "internalType": "address",
          "name": "previousOwner",
          "type": "address"
        },
        {
          "indexed": true,
          "internalType": "address",
          "name": "newOwner",
          "type": "address"
        }
      ],
      "name": "OwnershipTransferred",
      "type": "event"
    },
    {
      "anonymous": false,
      "inputs": [
        {
          "indexed": true,
          "internalType": "address",
          "name": "from",
          "type": "address"
        },
        {
          "indexed": true,
          "internalType": "address",
          "name": "to",
          "type": "address"
        },
        {
          "indexed": false,
          "internalType": "uint256",
          "name": "value",
          "type": "uint256"
        }
      ],
      "name": "Transfer",
      "type": "event"
    },
    {
      "inputs": [],
      "name": "POOL",
      "outputs": [
        {
          "internalType": "address",
          "name": "",
          "type": "address"
        }
      ],
      "stateMutability": "view",
      "type": "function"
    },
    {
      "inputs": [],
      "name": "POOL_ADDRESS",
      "outputs": [
        {
          "internalType": "address",
          "name": "",
          "type": "address"
        }
      ],
      "stateMutability": "view",
      "type": "function"
    },
    {
      "inputs": [],
      "name": "UNDERLYING_ASSET",
      "outputs": [
        {
          "internalType": "address",
          "name": "",
          "type": "address"
        }
      ],
      "stateMutability": "view",
      "type": "function"
    },
    {
      "inputs": [],
      "name": "UNDERLYING_ASSET_ADDRESS",
      "outputs": [
        {
          "internalType": "address",
          "name": "",
          "type": "address"
        }
      ],
      "stateMutability": "view",
      "type": "function"
    },
    {
      "inputs": [
        {
          "internalType": "address",
          "name": "owner",
          "type": "address"
        },
        {
          "internalType": "address",
          "name": "spender",
          "type": "address"
        }
      ],
      "name": "allowance",
      "outputs": [
        {
          "internalType": "uint256",
          "name": "",
          "type": "uint256"
        }
      ],
      "stateMutability": "view",
      "type": "function"
    },
    {
      "inputs": [
        {
          "internalType": "address",
          "name": "spender",
          "type": "address"
        },
        {
          "internalType": "uint256",
          "name": "value",
          "type": "uint256"
        }
      ],
      "name": "approve",
      "outputs": [
        {
          "internalType": "bool",
          "name": "",
          "type": "bool"
        }
      ],
      "stateMutability": "nonpayable",
      "type": "function"
    },
    {
      "inputs": [
        {
          "internalType": "address",
          "name": "account",
          "type": "address"
        }
      ],
      "name": "balanceOf",
      "outputs": [
        {
          "internalType": "uint256",
          "name": "",
          "type": "uint256"
        }
      ],
      "stateMutability": "view",
      "type": "function"
    },
    {
      "inputs": [
        {
          "internalType": "address",
          "name": "user",
          "type": "address"
        },
        {
          "internalType": "uint256",
          "name": "amount",
          "type": "uint256"
        }
      ],
      "name": "burn",
      "outputs": [],
      "stateMutability": "nonpayable",
      "type": "function"
    },
    {
      "inputs": [],
      "name": "decimals",
      "outputs": [
        {
          "internalType": "uint8",
          "name": "",
          "type": "uint8"
        }
      ],
      "stateMutability": "view",
      "type": "function"
    },
    {
      "inputs": [
        {
          "internalType": "address",
          "name": "user",
          "type": "address"
        },
        {
          "internalType": "uint256",
          "name": "amount",
          "type": "uint256"
        }
      ],
      "name": "mint",
      "outputs": [],
      "stateMutability": "nonpayable",
      "type": "function"
    },
    {
      "inputs": [],
      "name": "name",
      "outputs": [
        {
          "internalType": "string",
          "name": "",
          "type": "string"
        }
      ],
      "stateMutability": "view",
      "type": "function"
    },
    {
      "inputs": [],
      "name": "owner",
      "outputs": [
        {
          "internalType": "address",
          "name": "",
          "type": "address"
        }
      ],
      "stateMutability": "view",
      "type": "function"
    },
    {
      "inputs": [],
      "name": "renounceOwnership",
      "outputs": [],
      "stateMutability": "nonpayable",
      "type": "function"
    },
    {
      "inputs": [],
      "name": "symbol",
      "outputs": [
        {
          "internalType": "string",
          "name": "",
          "type": "string"
        }
      ],
      "stateMutability": "view",
      "type": "function"
    },
    {
      "inputs": [],
      "name": "totalSupply",
      "outputs": [
        {
          "internalType": "uint256",
          "name": "",
          "type": "uint256"
        }
      ],
      "stateMutability": "view",
      "type": "function"
    },
    {
      "inputs": [
        {
          "internalType": "address",
          "name": "to",
          "type": "address"
        },
        {
          "internalType": "uint256",
          "name": "value",
          "type": "uint256"
        }
      ],
      "name": "transfer",
      "outputs": [
        {
          "internalType": "bool",
          "name": "",
          "type": "bool"
        }
      ],
      "stateMutability": "nonpayable",
      "type": "function"
    },
    {
      "inputs": [
        {
          "internalType": "address",
          "name": "from",
          "type": "address"
        },
        {
          "internalType": "address",
          "name": "to",
          "type": "address"
        },
        {
          "internalType": "uint256",
          "name": "value",
          "type": "uint256"
        }
      ],
      "name": "transferFrom",
      "outputs": [
        {
          "internalType": "bool",
          "name": "",
          "type": "bool"
        }
      ],
      "stateMutability": "nonpayable",
      "type": "function"
    },
    {
      "inputs": [
        {
          "internalType": "address",
          "name": "newOwner",
          "type": "address"
        }
      ],
      "name": "transferOwnership",
      "outputs": [],
      "stateMutability": "nonpayable",
      "type": "function"
    }
  ],
  "bytecode": "0x60c060405234801561000f575f5ffd5b50604051610fc4380380610fc483398101604081905261002e916101a6565b338282600361003d83826102b0565b50600461004a82826102b0565b5050506001600160a01b03811661007a57604051631e4fbdf760e01b81525f600482015260240160405180910390fd5b6100838161009d565b5050506001600160a01b039182166080521660a05261036a565b600580546001600160a01b038381166001600160a01b0319831681179093556040519116919082907f8be0079c531659141344cd1fd0a4f28419497f9722a3daafe3b4186f6b6457e0905f90a35050565b80516001600160a01b0381168114610104575f5ffd5b919050565b634e487b7160e01b5f52604160045260245ffd5b5f82601f83011261012c575f5ffd5b81516001600160401b0381111561014557610145610109565b604051601f8201601f19908116603f011681016001600160401b038111828210171561017357610173610109565b60405281815283820160200185101561018a575f5ffd5b8160208501602083015e5f918101602001919091529392505050565b5f5f5f5f608085870312156101b9575f5ffd5b6101c2856100ee565b93506101d0602086016100ee565b60408601519093506001600160401b038111156101eb575f5ffd5b6101f78782880161011d565b606087015190935090506001600160401b03811115610214575f5ffd5b6102208782880161011d565b91505092959194509250565b600181811c9082168061024057607f821691505b60208210810361025e57634e487b7160e01b5f52602260045260245ffd5b50919050565b601f8211156102ab57805f5260205f20601f840160051c810160208510156102895750805b601f840160051c820191505b818110156102a8575f8155600101610295565b50505b505050565b81516001600160401b038111156102c9576102c9610109565b6102dd816102d7845461022c565b84610264565b6020601f82116001811461030f575f83156102f85750848201515b5f19600385901b1c1916600184901b1784556102a8565b5f84815260208120601f198516915b8281101561033e578785015182556020948501946001909201910161031e565b508482101561035b57868401515f19600387901b60f8161c191681555b50505050600190811b01905550565b60805160a051610c1d6103a75f395f81816101d4015281816102e7015281816103e2015261051701525f818161024f01526102b00152610c1d5ff3fe608060405234801561000f575f5ffd5b5060043610610111575f3560e01c80638da5cb5b1161009e578063b16a19de1161006e578063b16a19de1461024d578063dd62ed3e14610273578063e6025393146102ab578063f2fde38b146102d2578063fe94df88146102e5575f5ffd5b80638da5cb5b1461020e57806395d89b411461021f5780639dc29fac14610227578063a9059cbb1461023a575f5ffd5b8063313ce567116100e4578063313ce5671461017b57806340c10f191461018a57806370a082311461019f578063715018a6146101c75780637535d246146101cf575f5ffd5b806306fdde0314610115578063095ea7b31461013357806318160ddd1461015657806323b872dd14610168575b5f5ffd5b61011d61030b565b60405161012a9190610a8d565b60405180910390f35b610146610141366004610add565b61039b565b604051901515815260200161012a565b6002545b60405190815260200161012a565b610146610176366004610b05565b6103b4565b6040516012815260200161012a565b61019d610198366004610add565b6103d7565b005b61015a6101ad366004610b3f565b6001600160a01b03165f9081526020819052604090205490565b61019d6104ea565b6101f67f000000000000000000000000000000000000000000000000000000000000000081565b6040516001600160a01b03909116815260200161012a565b6005546001600160a01b03166101f6565b61011d6104fd565b61019d610235366004610add565b61050c565b610146610248366004610add565b610676565b7f00000000000000000000000000000000000000000000000000000000000000006101f6565b61015a610281366004610b5f565b6001600160a01b039182165f90815260016020908152604080832093909416825291909152205490565b6101f67f000000000000000000000000000000000000000000000000000000000000000081565b61019d6102e0366004610b3f565b610683565b7f00000000000000000000000000000000000000000000000000000000000000006101f6565b60606003805461031a90610b90565b80601f016020809104026020016040519081016040528092919081815260200182805461034690610b90565b80156103915780601f1061036857610100808354040283529160200191610391565b820191905f5260205f20905b81548152906001019060200180831161037457829003601f168201915b5050505050905090565b5f336103a88185856106c0565b60019150505b92915050565b5f336103c18582856106d2565b6103cc85858561074e565b506001949350505050565b336001600160a01b037f000000000000000000000000000000000000000000000000000000000000000016146104495760405162461bcd60e51b815260206004820152601260248201527113db9b1e481c1bdbdb0818d85b881b5a5b9d60721b60448201526064015b60405180910390fd5b5f81116104985760405162461bcd60e51b815260206004820152601d60248201527f416d6f756e74206d7573742062652067726561746572207468616e20300000006044820152606401610440565b6104a282826107ab565b604080518281525f60208201526001600160a01b038416917f4c209b5fc8ad50758f13e2e1088ba56a560dff690a1c6fef26394f4c03821c4f91015b60405180910390a25050565b6104f26107e3565b6104fb5f610810565b565b60606004805461031a90610b90565b336001600160a01b037f000000000000000000000000000000000000000000000000000000000000000016146105795760405162461bcd60e51b815260206004820152601260248201527127b7363c903837b7b61031b0b710313ab93760711b6044820152606401610440565b5f81116105c85760405162461bcd60e51b815260206004820152601d60248201527f416d6f756e74206d7573742062652067726561746572207468616e20300000006044820152606401610440565b806105e7836001600160a01b03165f9081526020819052604090205490565b101561062c5760405162461bcd60e51b8152602060048201526014602482015273496e73756666696369656e742062616c616e636560601b6044820152606401610440565b6106368282610861565b604080518281525f60208201526001600160a01b038416917f49995e5dd6158cf69ad3e9777c46755a1a826a446c6416992167462dad033b2a91016104de565b5f336103a881858561074e565b61068b6107e3565b6001600160a01b0381166106b457604051631e4fbdf760e01b81525f6004820152602401610440565b6106bd81610810565b50565b6106cd8383836001610895565b505050565b6001600160a01b038381165f908152600160209081526040808320938616835292905220545f19811015610748578181101561073a57604051637dc7a0d960e11b81526001600160a01b03841660048201526024810182905260448101839052606401610440565b61074884848484035f610895565b50505050565b6001600160a01b03831661077757604051634b637e8f60e11b81525f6004820152602401610440565b6001600160a01b0382166107a05760405163ec442f0560e01b81525f6004820152602401610440565b6106cd838383610967565b6001600160a01b0382166107d45760405163ec442f0560e01b81525f6004820152602401610440565b6107df5f8383610967565b5050565b6005546001600160a01b031633146104fb5760405163118cdaa760e01b8152336004820152602401610440565b600580546001600160a01b038381166001600160a01b0319831681179093556040519116919082907f8be0079c531659141344cd1fd0a4f28419497f9722a3daafe3b4186f6b6457e0905f90a35050565b6001600160a01b03821661088a57604051634b637e8f60e11b81525f6004820152602401610440565b6107df825f83610967565b6001600160a01b0384166108be5760405163e602df0560e01b81525f6004820152602401610440565b6001600160a01b0383166108e757604051634a1406b160e11b81525f6004820152602401610440565b6001600160a01b038085165f908152600160209081526040808320938716835292905220829055801561074857826001600160a01b0316846001600160a01b03167f8c5be1e5ebec7d5bd14f71427d1e84f3dd0314c0f7b2291e5b200ac8c7c3b9258460405161095991815260200190565b60405180910390a350505050565b6001600160a01b038316610991578060025f8282546109869190610bc8565b90915550610a019050565b6001600160a01b0383165f90815260208190526040902054818110156109e35760405163391434e360e21b81526001600160a01b03851660048201526024810182905260448101839052606401610440565b6001600160a01b0384165f9081526020819052604090209082900390555b6001600160a01b038216610a1d57600280548290039055610a3b565b6001600160a01b0382165f9081526020819052604090208054820190555b816001600160a01b0316836001600160a01b03167fddf252ad1be2c89b69c2b068fc378daa952ba7f163c4a11628f55a4df523b3ef83604051610a8091815260200190565b60405180910390a3505050565b602081525f82518060208401528060208501604085015e5f604082850101526040601f19601f83011684010191505092915050565b80356001600160a01b0381168114610ad8575f5ffd5b919050565b5f5f60408385031215610aee575f5ffd5b610af783610ac2565b946020939093013593505050565b5f5f5f60608486031215610b17575f5ffd5b610b2084610ac2565b9250610b2e60208501610ac2565b929592945050506040919091013590565b5f60208284031215610b4f575f5ffd5b610b5882610ac2565b9392505050565b5f5f60408385031215610b70575f5ffd5b610b7983610ac2565b9150610b8760208401610ac2565b90509250929050565b600181811c90821680610ba457607f821691505b602082108103610bc257634e487b7160e01b5f52602260045260245ffd5b50919050565b808201808211156103ae57634e487b7160e01b5f52601160045260245ffdfea264697066735822122062f5f22c95dbc545f31c1939a2f7ebc83d2df7e9900ac95a2a5d85efbd260f3864736f6c634300081c0033",
  "linkReferences": {},
  "deployedLinkReferences": {},
  "immutableReferences": {
    "944": [
      {
        "length": 32,
        "start": 591
      },
      {
        "length": 32,
        "start": 688
      }
    ],
    "946": [
      {
        "length": 32,
        "start": 468
      },
      {
        "length": 32,
        "start": 743
      },
      {
        "length": 32,
        "start": 994
      },
      {
        "length": 32,
        "start": 1303
      }
    ]
  },
  "inputSourceName": "project/contracts/MockAToken.sol",
  "buildInfoId": "solc-0_8_28-7ed2a63ec453292a8fd4777ff8846c42ad8ffe30"
}