{
  "_format": "hh3-artifact-1",
  "contractName": "MockAavePool",
  "sourceName": "contracts/MockAavePool.sol",
  "abi": [
    {
      "inputs": [],
      "stateMutability": "nonpayable",
      "type": "constructor"
    },
    {
      "inputs": [
        {
          "internalType": "address",
          "name": "owner",
          "type": "address"
        }
      ],
      "name": "OwnableInvalidOwner",
      "type": "error"
    },
    {
      "inputs": [
        {
          "internalType": "address",
          "name": "account",
          "type": "address"
        }
      ],
      "name": "OwnableUnauthorizedAccount",
      "type": "error"
    },
    {
      "anonymous": false,
      "inputs": [
        {
          "indexed": true,
          "internalType": "address",
          "name": "previousOwner",
          "type": "address"
        },
        {
          "indexed": true,
          "internalType": "address",
          "name": "newOwner",
          "type": "address"
        }
      ],
      "name": "OwnershipTransferred",
      "type": "event"
    },
    {
      "anonymous": false,
      "inputs": [
        {
          "indexed": true,
          "internalType": "address",
          "name": "user",
          "type": "address"
        },
        {
          "indexed": true,
          "internalType": "address",
          "name": "asset",
          "type": "address"
        },
        {
          "indexed": false,
          "internalType": "uint256",
          "name": "amount",
          "type": "uint256"
        },
        {
          "indexed": false,
          "internalType": "uint16",
          "name": "referralCode",
          "type": "uint16"
        }
      ],
      "name": "Supplied",
      "type": "event"
    },
    {
      "anonymous": false,
      "inputs": [
        {
          "indexed": true,
          "internalType": "address",
          "name": "user",
          "type": "address"
        },
        {
          "indexed": true,
          "internalType": "address",
          "name": "asset",
          "type": "address"
        },
        {
          "indexed": false,
          "internalType": "uint256",
          "name": "amount",
          "type": "uint256"
        },
        {
          "indexed": true,
          "internalType": "address",
          "name": "to",
          "type": "address"
        }
      ],
      "name": "Withdrawn",
      "type": "event"
    },
    {
      "inputs": [],
      "name": "APY_BASIS_POINTS",
      "outputs": [
        {
          "internalType": "uint256",
          "name": "",
          "type": "uint256"
        }
      ],
      "stateMutability": "view",
      "type": "function"
    },
    {
      "inputs": [],
      "name": "BASIS_POINTS",
      "outputs": [
        {
          "internalType": "uint256",
          "name": "",
          "type": "uint256"
        }
      ],
      "stateMutability": "view",
      "type": "function"
    },
    {
      "inputs": [
        {
          "internalType": "address",
          "name": "",
          "type": "address"
        }
      ],
      "name": "depositTimestamps",
      "outputs": [
        {
          "internalType": "uint256",
          "name": "",
          "type": "uint256"
        }
      ],
      "stateMutability": "view",
      "type": "function"
    },
    {
      "inputs": [
        {
          "internalType": "address",
          "name": "token",
          "type": "address"
        }
      ],
      "name": "emergencyWithdraw",
      "outputs": [],
      "stateMutability": "nonpayable",
      "type": "function"
    },
    {
      "inputs": [
        {
          "internalType": "address",
          "name": "token",
          "type": "address"
        },
        {
          "internalType": "uint256",
          "name": "amount",
          "type": "uint256"
        }
      ],
      "name": "emergencyWithdraw",
      "outputs": [],
      "stateMutability": "nonpayable",
      "type": "function"
    },
    {
      "inputs": [],
      "name": "getAPY",
      "outputs": [
        {
          "internalType": "uint256",
          "name": "",
          "type": "uint256"
        }
      ],
      "stateMutability": "pure",
      "type": "function"
    },
    {
      "inputs": [
        {
          "internalType": "address",
          "name": "asset",
          "type": "address"
        }
      ],
      "name": "getReserveData",
      "outputs": [
        {
          "internalType": "uint256",
          "name": "configuration",
          "type": "uint256"
        },
        {
          "internalType": "uint128",
          "name": "liquidityIndex",
          "type": "uint128"
        },
        {
          "internalType": "uint128",
          "name": "variableBorrowIndex",
          "type": "uint128"
        },
        {
          "internalType": "uint128",
          "name": "currentLiquidityRate",
          "type": "uint128"
        },
        {
          "internalType": "uint128",
          "name": "currentVariableBorrowRate",
          "type": "uint128"
        },
        {
          "internalType": "uint128",
          "name": "currentStableBorrowRate",
          "type": "uint128"
        },
        {
          "internalType": "uint40",
          "name": "lastUpdateTimestamp",
          "type": "uint40"
        },
        {
          "internalType": "address",
          "name": "aTokenAddress",
          "type": "address"
        },
        {
          "internalType": "address",
          "name": "stableDebtTokenAddress",
          "type": "address"
        },
        {
          "internalType": "address",
          "name": "variableDebtTokenAddress",
          "type": "address"
        },
        {
          "internalType": "address",
          "name": "interestRateStrategyAddress",
          "type": "address"
        },
        {
          "internalType": "uint8",
          "name": "id",
          "type": "uint8"
        }
      ],
      "stateMutability": "view",
      "type": "function"
    },
    {
      "inputs": [
        {
          "internalType": "address",
          "name": "user",
          "type": "address"
        }
      ],
      "name": "getUserAccountData",
      "outputs": [
        {
          "internalType": "uint256",
          "name": "totalCollateralETH",
          "type": "uint256"
        },
        {
          "internalType": "uint256",
          "name": "totalDebtETH",
          "type": "uint256"
        },
        {
          "internalType": "uint256",
          "name": "availableBorrowsETH",
          "type": "uint256"
        },
        {
          "internalType": "uint256",
          "name": "currentLiquidationThreshold",
          "type": "uint256"
        },
        {
          "internalType": "uint256",
          "name": "ltv",
          "type": "uint256"
        },
        {
          "internalType": "uint256",
          "name": "healthFactor",
          "type": "uint256"
        }
      ],
      "stateMutability": "view",
      "type": "function"
    },
    {
      "inputs": [
        {
          "internalType": "address",
          "name": "user",
          "type": "address"
        }
      ],
      "name": "getUserBalance",
      "outputs": [
        {
          "internalType": "uint256",
          "name": "",
          "type": "uint256"
        }
      ],
      "stateMutability": "view",
      "type": "function"
    },
    {
      "inputs": [],
      "name": "owner",
      "outputs": [
        {
          "internalType": "address",
          "name": "",
          "type": "address"
        }
      ],
      "stateMutability": "view",
      "type": "function"
    },
    {
      "inputs": [],
      "name": "renounceOwnership",
      "outputs": [],
      "stateMutability": "nonpayable",
      "type": "function"
    },
    {
      "inputs": [
        {
          "internalType": "address",
          "name": "asset",
          "type": "address"
        },
        {
          "internalType": "uint256",
          "name": "amount",
          "type": "uint256"
        },
        {
          "internalType": "address",
          "name": "onBehalfOf",
          "type": "address"
        },
        {
          "internalType": "uint16",
          "name": "referralCode",
          "type": "uint16"
        }
      ],
      "name": "supply",
      "outputs": [],
      "stateMutability": "nonpayable",
      "type": "function"
    },
    {
      "inputs": [],
      "name": "totalAssets",
      "outputs": [
        {
          "internalType": "uint256",
          "name": "",
          "type": "uint256"
        }
      ],
      "stateMutability": "view",
      "type": "function"
    },
    {
      "inputs": [
        {
          "internalType": "address",
          "name": "newOwner",
          "type": "address"
        }
      ],
      "name": "transferOwnership",
      "outputs": [],
      "stateMutability": "nonpayable",
      "type": "function"
    },
    {
      "inputs": [
        {
          "internalType": "address",
          "name": "",
          "type": "address"
        }
      ],
      "name": "userDeposits",
      "outputs": [
        {
          "internalType": "uint256",
          "name": "",
          "type": "uint256"
        }
      ],
      "stateMutability": "view",
      "type": "function"
    },
    {
      "inputs": [
        {
          "internalType": "address",
          "name": "asset",
          "type": "address"
        },
        {
          "internalType": "uint256",
          "name": "amount",
          "type": "uint256"
        },
        {
          "internalType": "address",
          "name": "to",
          "type": "address"
        }
      ],
      "name": "withdraw",
      "outputs": [
        {
          "internalType": "uint256",
          "name": "",
          "type": "uint256"
        }
      ],
      "stateMutability": "nonpayable",
      "type": "function"
    }
  ],
  "bytecode": "0x6080604052348015600e575f5ffd5b503380603357604051631e4fbdf760e01b81525f600482015260240160405180910390fd5b603a81603f565b50608e565b5f80546001600160a01b038381166001600160a01b0319831681178455604051919092169283917f8be0079c531659141344cd1fd0a4f28419497f9722a3daafe3b4186f6b6457e09190a35050565b610b4d8061009b5f395ff3fe608060405234801561000f575f5ffd5b50600436106100fb575f3560e01c8063715018a611610093578063bf92857c11610063578063bf92857c1461027c578063d2cbf7ad146102bc578063e1f1c4a7146102c4578063f2fde38b146102cd575f5ffd5b8063715018a61461023e5780638da5cb5b1461024657806395ccea6714610260578063b35f051714610273575f5ffd5b806347734892116100ce57806347734892146101f0578063617ba0371461020357806369328dec146102185780636ff1c9bc1461022b575f5ffd5b806301e1d114146100ff5780630ba36dcd14610114578063240be9441461013357806335ea6a7514610152575b5f5ffd5b475b6040519081526020015b60405180910390f35b61010161012236600461099e565b60016020525f908152604090205481565b61010161014136600461099e565b60026020525f908152604090205481565b61016561016036600461099e565b6102e0565b604080519c8d526fffffffffffffffffffffffffffffffff9b8c1660208e0152998b16998c019990995296891660608b015294881660808a01529290961660a088015264ffffffffff1660c08701526001600160a01b0394851660e0870152841661010086015283166101208501529190911661014083015260ff166101608201526101800161010b565b6101016101fe36600461099e565b61033a565b6102166102113660046109be565b61034a565b005b610101610226366004610a10565b6104fe565b61021661023936600461099e565b610699565b61021661079e565b5f546040516001600160a01b03909116815260200161010b565b61021661026e366004610a49565b6107b1565b6101016101f481565b61028f61028a36600461099e565b6107d9565b604080519687526020870195909552938501929092526060840152608083015260a082015260c00161010b565b6101f4610101565b61010161271081565b6102166102db36600461099e565b610800565b5f8080808080808080808080806b033b2e3c9fd0803ce80000008161030b6101f4633b9aca00610a85565b5f5f425f5f5f5f5f9b509b509b509b509b509b509b509b509b509b509b509b5091939597999b5091939597999b565b5f6103448261083d565b92915050565b5f831161039e5760405162461bcd60e51b815260206004820152601d60248201527f416d6f756e74206d7573742062652067726561746572207468616e203000000060448201526064015b60405180910390fd5b6040516323b872dd60e01b8152336004820152306024820152604481018490526001600160a01b038516906323b872dd906064016020604051808303815f875af11580156103ee573d5f5f3e3d5ffd5b505050506040513d601f19601f820116820180604052508101906104129190610a9c565b506001600160a01b0382165f90815260016020526040902054156104665761043982610869565b6001600160a01b0383165f9081526001602052604081208054909190610460908490610abb565b90915550505b6001600160a01b0382165f908152600160205260408120805485929061048d908490610abb565b90915550506001600160a01b038083165f818152600260205260409081902042905551918616917f3b9084505ac3c33d25de7ed0fecdd6e20c10514fadf13a205831d2864f6edc31906104f0908790869091825261ffff16602082015260400190565b60405180910390a350505050565b5f5f831161054e5760405162461bcd60e51b815260206004820152601d60248201527f416d6f756e74206d7573742062652067726561746572207468616e20300000006044820152606401610395565b5f6105583361083d565b9050838110156105a15760405162461bcd60e51b8152602060048201526014602482015273496e73756666696369656e742062616c616e636560601b6044820152606401610395565b6105ab8482610ace565b335f90815260016020908152604080832093909355600290528190204290555163a9059cbb60e01b81526001600160a01b0384811660048301526024820186905286169063a9059cbb906044016020604051808303815f875af1158015610614573d5f5f3e3d5ffd5b505050506040513d601f19601f820116820180604052508101906106389190610a9c565b50826001600160a01b0316856001600160a01b0316336001600160a01b03167f889d364b5102aee044ff370e2e6a836584e5618a16dce4f5b191459cf3903e588760405161068891815260200190565b60405180910390a450919392505050565b6106a1610908565b6040516370a0823160e01b81523060048201525f906001600160a01b038316906370a0823190602401602060405180830381865afa1580156106e5573d5f5f3e3d5ffd5b505050506040513d601f19601f820116820180604052508101906107099190610ae1565b9050816001600160a01b031663a9059cbb61072b5f546001600160a01b031690565b6040516001600160e01b031960e084901b1681526001600160a01b039091166004820152602481018490526044016020604051808303815f875af1158015610775573d5f5f3e3d5ffd5b505050506040513d601f19601f820116820180604052508101906107999190610a9c565b505050565b6107a6610908565b6107af5f610934565b565b6107b9610908565b816001600160a01b031663a9059cbb61072b5f546001600160a01b031690565b5f5f5f5f5f5f5f6107e98861083d565b985f98505f19975088965086955087945092505050565b610808610908565b6001600160a01b03811661083157604051631e4fbdf760e01b81525f6004820152602401610395565b61083a81610934565b50565b5f61084782610869565b6001600160a01b0383165f908152600160205260409020546103449190610abb565b6001600160a01b0381165f90815260016020526040812054810361088e57505f919050565b6001600160a01b0382165f908152600260205260408120546108b09042610ace565b90506301e133805f6108c482612710610a85565b6001600160a01b0386165f9081526001602052604090205484906108eb906101f490610a85565b6108f59190610a85565b6108ff9190610af8565b95945050505050565b5f546001600160a01b031633146107af5760405163118cdaa760e01b8152336004820152602401610395565b5f80546001600160a01b038381166001600160a01b0319831681178455604051919092169283917f8be0079c531659141344cd1fd0a4f28419497f9722a3daafe3b4186f6b6457e09190a35050565b80356001600160a01b0381168114610999575f5ffd5b919050565b5f602082840312156109ae575f5ffd5b6109b782610983565b9392505050565b5f5f5f5f608085870312156109d1575f5ffd5b6109da85610983565b9350602085013592506109ef60408601610983565b9150606085013561ffff81168114610a05575f5ffd5b939692955090935050565b5f5f5f60608486031215610a22575f5ffd5b610a2b84610983565b925060208401359150610a4060408501610983565b90509250925092565b5f5f60408385031215610a5a575f5ffd5b610a6383610983565b946020939093013593505050565b634e487b7160e01b5f52601160045260245ffd5b808202811582820484141761034457610344610a71565b5f60208284031215610aac575f5ffd5b815180151581146109b7575f5ffd5b8082018082111561034457610344610a71565b8181038181111561034457610344610a71565b5f60208284031215610af1575f5ffd5b5051919050565b5f82610b1257634e487b7160e01b5f52601260045260245ffd5b50049056fea26469706673582212208fab2b3af46f8e7567db9930c37f66361590aece61a4a2ac66c4b34b67ce55db64736f6c634300081c0033",
  "linkReferences": {},
  "deployedLinkReferences": {},
  "immutableReferences": {},
  "inputSourceName": "project/contracts/MockAavePool.sol",
  "buildInfoId": "solc-0_8_28-8345aedee72919d94af6662d222bd955c4e80af5"
}